{
	"data": {
		"bytecode": {
			"linkReferences": {},
			"object": "60806040527f800000000000000000000000000000000000000000000000000000000000000060025534801561003457600080fd5b50600080819055506101c18061004b6000396000f3fe608060405234801561001057600080fd5b506004361061004c5760003560e01c80631d263f671461005157806335815b95146100995780633fa21806146100b7578063e6f334d7146100d5575b600080fd5b61007f6004803603602081101561006757600080fd5b810190808035151590602001909291905050506100f3565b604051808215151515815260200191505060405180910390f35b6100a1610179565b6040518082815260200191505060405180910390f35b6100bf61017f565b6040518082815260200191505060405180910390f35b6100dd610185565b6040518082815260200191505060405180910390f35b600080600143034060001c905080600154141561010f57600080fd5b806001819055506000600254828161012357fe5b04905060006001821461013757600061013a565b60015b9050841515811515141561016557600080815480929190600101919050555060019350505050610174565b60008081905550600093505050505b919050565b60025481565b60015481565b6000548156fea26469706673582212200127975b0bcba8dbb1b01470e4f298988042a3bcfac92c1c7b9d330129f3e86264736f6c63430006000033",
			"opcodes": "PUSH1 0x80 PUSH1 0x40 MSTORE PUSH32 0x8000000000000000000000000000000000000000000000000000000000000000 PUSH1 0x2 SSTORE CALLVALUE DUP1 ISZERO PUSH2 0x34 JUMPI PUSH1 0x0 DUP1 REVERT JUMPDEST POP PUSH1 0x0 DUP1 DUP2 SWAP1 SSTORE POP PUSH2 0x1C1 DUP1 PUSH2 0x4B PUSH1 0x0 CODECOPY PUSH1 0x0 RETURN INVALID PUSH1 0x80 PUSH1 0x40 MSTORE CALLVALUE DUP1 ISZERO PUSH2 0x10 JUMPI PUSH1 0x0 DUP1 REVERT JUMPDEST POP PUSH1 0x4 CALLDATASIZE LT PUSH2 0x4C JUMPI PUSH1 0x0 CALLDATALOAD PUSH1 0xE0 SHR DUP1 PUSH4 0x1D263F67 EQ PUSH2 0x51 JUMPI DUP1 PUSH4 0x35815B95 EQ PUSH2 0x99 JUMPI DUP1 PUSH4 0x3FA21806 EQ PUSH2 0xB7 JUMPI DUP1 PUSH4 0xE6F334D7 EQ PUSH2 0xD5 JUMPI JUMPDEST PUSH1 0x0 DUP1 REVERT JUMPDEST PUSH2 0x7F PUSH1 0x4 DUP1 CALLDATASIZE SUB PUSH1 0x20 DUP2 LT ISZERO PUSH2 0x67 JUMPI PUSH1 0x0 DUP1 REVERT JUMPDEST DUP2 ADD SWAP1 DUP1 DUP1 CALLDATALOAD ISZERO ISZERO SWAP1 PUSH1 0x20 ADD SWAP1 SWAP3 SWAP2 SWAP1 POP POP POP PUSH2 0xF3 JUMP JUMPDEST PUSH1 0x40 MLOAD DUP1 DUP3 ISZERO ISZERO ISZERO ISZERO DUP2 MSTORE PUSH1 0x20 ADD SWAP2 POP POP PUSH1 0x40 MLOAD DUP1 SWAP2 SUB SWAP1 RETURN JUMPDEST PUSH2 0xA1 PUSH2 0x179 JUMP JUMPDEST PUSH1 0x40 MLOAD DUP1 DUP3 DUP2 MSTORE PUSH1 0x20 ADD SWAP2 POP POP PUSH1 0x40 MLOAD DUP1 SWAP2 SUB SWAP1 RETURN JUMPDEST PUSH2 0xBF PUSH2 0x17F JUMP JUMPDEST PUSH1 0x40 MLOAD DUP1 DUP3 DUP2 MSTORE PUSH1 0x20 ADD SWAP2 POP POP PUSH1 0x40 MLOAD DUP1 SWAP2 SUB SWAP1 RETURN JUMPDEST PUSH2 0xDD PUSH2 0x185 JUMP JUMPDEST PUSH1 0x40 MLOAD DUP1 DUP3 DUP2 MSTORE PUSH1 0x20 ADD SWAP2 POP POP PUSH1 0x40 MLOAD DUP1 SWAP2 SUB SWAP1 RETURN JUMPDEST PUSH1 0x0 DUP1 PUSH1 0x1 NUMBER SUB BLOCKHASH PUSH1 0x0 SHR SWAP1 POP DUP1 PUSH1 0x1 SLOAD EQ ISZERO PUSH2 0x10F JUMPI PUSH1 0x0 DUP1 REVERT JUMPDEST DUP1 PUSH1 0x1 DUP2 SWAP1 SSTORE POP PUSH1 0x0 PUSH1 0x2 SLOAD DUP3 DUP2 PUSH2 0x123 JUMPI INVALID JUMPDEST DIV SWAP1 POP PUSH1 0x0 PUSH1 0x1 DUP3 EQ PUSH2 0x137 JUMPI PUSH1 0x0 PUSH2 0x13A JUMP JUMPDEST PUSH1 0x1 JUMPDEST SWAP1 POP DUP5 ISZERO ISZERO DUP2 ISZERO ISZERO EQ ISZERO PUSH2 0x165 JUMPI PUSH1 0x0 DUP1 DUP2 SLOAD DUP1 SWAP3 SWAP2 SWAP1 PUSH1 0x1 ADD SWAP2 SWAP1 POP SSTORE POP PUSH1 0x1 SWAP4 POP POP POP POP PUSH2 0x174 JUMP JUMPDEST PUSH1 0x0 DUP1 DUP2 SWAP1 SSTORE POP PUSH1 0x0 SWAP4 POP POP POP POP JUMPDEST SWAP2 SWAP1 POP JUMP JUMPDEST PUSH1 0x2 SLOAD DUP2 JUMP JUMPDEST PUSH1 0x1 SLOAD DUP2 JUMP JUMPDEST PUSH1 0x0 SLOAD DUP2 JUMP INVALID LOG2 PUSH5 0x6970667358 0x22 SLT KECCAK256 ADD 0x27 SWAP8 JUMPDEST SIGNEXTEND 0xCB 0xA8 0xDB 0xB1 0xB0 EQ PUSH17 0xE4F298988042A3BCFAC92C1C7B9D330129 RETURN 0xE8 PUSH3 0x64736F PUSH13 0x63430006000033000000000000 "
		},
		"gasEstimates": {
			"creation": {
				"codeDepositCost": "89800",
				"executionCost": "25161",
				"totalCost": "114961"
			},
			"external": {
				"FACTOR()": "1005",
				"consecutiveWins()": "1049",
				"flip(bool)": "42951",
				"lastHash()": "1027"
			}
		},
		"methodIdentifiers": {
			"FACTOR()": "35815b95",
			"consecutiveWins()": "e6f334d7",
			"flip(bool)": "1d263f67",
			"lastHash()": "3fa21806"
		}
	},
	"abi": [
		{
			"inputs": [],
			"stateMutability": "nonpayable",
			"type": "constructor"
		},
		{
			"inputs": [],
			"name": "FACTOR",
			"outputs": [
				{
					"internalType": "uint256",
					"name": "",
					"type": "uint256"
				}
			],
			"stateMutability": "view",
			"type": "function"
		},
		{
			"inputs": [],
			"name": "consecutiveWins",
			"outputs": [
				{
					"internalType": "uint256",
					"name": "",
					"type": "uint256"
				}
			],
			"stateMutability": "view",
			"type": "function"
		},
		{
			"inputs": [
				{
					"internalType": "bool",
					"name": "_guess",
					"type": "bool"
				}
			],
			"name": "flip",
			"outputs": [
				{
					"internalType": "bool",
					"name": "",
					"type": "bool"
				}
			],
			"stateMutability": "nonpayable",
			"type": "function"
		},
		{
			"inputs": [],
			"name": "lastHash",
			"outputs": [
				{
					"internalType": "uint256",
					"name": "",
					"type": "uint256"
				}
			],
			"stateMutability": "view",
			"type": "function"
		}
	]
}