{
	"data": {
		"bytecode": {
			"linkReferences": {},
			"object": "60806040526040518060a0016040528061270f815260200161270f815260200161270f815260200161270f81526020016000815250600080820151816000015560208201518160010155604082015181600201556060820151816003015560808201518160040155505034801561007557600080fd5b5060ff806100846000396000f3fe6080604052348015600f57600080fd5b506004361060285760003560e01c8063af3f11d714602d575b600080fd5b605660048036036020811015604157600080fd5b81019080803590602001909291905050506088565b604051808681526020018581526020018481526020018381526020018281526020019550505050505060405180910390f35b60058181548110609457fe5b9060005260206000209060050201600091509050806000015490806001015490806002015490806003015490806004015490508556fea265627a7a7231582017a4baa305c01bea8e2f8d8b1a4f570687572b5698d94138338bac784ad831e664736f6c63430005110032",
			"opcodes": "PUSH1 0x80 PUSH1 0x40 MSTORE PUSH1 0x40 MLOAD DUP1 PUSH1 0xA0 ADD PUSH1 0x40 MSTORE DUP1 PUSH2 0x270F DUP2 MSTORE PUSH1 0x20 ADD PUSH2 0x270F DUP2 MSTORE PUSH1 0x20 ADD PUSH2 0x270F DUP2 MSTORE PUSH1 0x20 ADD PUSH2 0x270F DUP2 MSTORE PUSH1 0x20 ADD PUSH1 0x0 DUP2 MSTORE POP PUSH1 0x0 DUP1 DUP3 ADD MLOAD DUP2 PUSH1 0x0 ADD SSTORE PUSH1 0x20 DUP3 ADD MLOAD DUP2 PUSH1 0x1 ADD SSTORE PUSH1 0x40 DUP3 ADD MLOAD DUP2 PUSH1 0x2 ADD SSTORE PUSH1 0x60 DUP3 ADD MLOAD DUP2 PUSH1 0x3 ADD SSTORE PUSH1 0x80 DUP3 ADD MLOAD DUP2 PUSH1 0x4 ADD SSTORE POP POP CALLVALUE DUP1 ISZERO PUSH2 0x75 JUMPI PUSH1 0x0 DUP1 REVERT JUMPDEST POP PUSH1 0xFF DUP1 PUSH2 0x84 PUSH1 0x0 CODECOPY PUSH1 0x0 RETURN INVALID PUSH1 0x80 PUSH1 0x40 MSTORE CALLVALUE DUP1 ISZERO PUSH1 0xF JUMPI PUSH1 0x0 DUP1 REVERT JUMPDEST POP PUSH1 0x4 CALLDATASIZE LT PUSH1 0x28 JUMPI PUSH1 0x0 CALLDATALOAD PUSH1 0xE0 SHR DUP1 PUSH4 0xAF3F11D7 EQ PUSH1 0x2D JUMPI JUMPDEST PUSH1 0x0 DUP1 REVERT JUMPDEST PUSH1 0x56 PUSH1 0x4 DUP1 CALLDATASIZE SUB PUSH1 0x20 DUP2 LT ISZERO PUSH1 0x41 JUMPI PUSH1 0x0 DUP1 REVERT JUMPDEST DUP2 ADD SWAP1 DUP1 DUP1 CALLDATALOAD SWAP1 PUSH1 0x20 ADD SWAP1 SWAP3 SWAP2 SWAP1 POP POP POP PUSH1 0x88 JUMP JUMPDEST PUSH1 0x40 MLOAD DUP1 DUP7 DUP2 MSTORE PUSH1 0x20 ADD DUP6 DUP2 MSTORE PUSH1 0x20 ADD DUP5 DUP2 MSTORE PUSH1 0x20 ADD DUP4 DUP2 MSTORE PUSH1 0x20 ADD DUP3 DUP2 MSTORE PUSH1 0x20 ADD SWAP6 POP POP POP POP POP POP PUSH1 0x40 MLOAD DUP1 SWAP2 SUB SWAP1 RETURN JUMPDEST PUSH1 0x5 DUP2 DUP2 SLOAD DUP2 LT PUSH1 0x94 JUMPI INVALID JUMPDEST SWAP1 PUSH1 0x0 MSTORE PUSH1 0x20 PUSH1 0x0 KECCAK256 SWAP1 PUSH1 0x5 MUL ADD PUSH1 0x0 SWAP2 POP SWAP1 POP DUP1 PUSH1 0x0 ADD SLOAD SWAP1 DUP1 PUSH1 0x1 ADD SLOAD SWAP1 DUP1 PUSH1 0x2 ADD SLOAD SWAP1 DUP1 PUSH1 0x3 ADD SLOAD SWAP1 DUP1 PUSH1 0x4 ADD SLOAD SWAP1 POP DUP6 JUMP INVALID LOG2 PUSH6 0x627A7A723158 KECCAK256 OR LOG4 0xBA LOG3 SDIV 0xC0 SHL 0xEA DUP15 0x2F DUP14 DUP12 BYTE 0x4F JUMPI MOD DUP8 JUMPI 0x2B JUMP SWAP9 0xD9 COINBASE CODESIZE CALLER DUP12 0xAC PUSH25 0x4AD831E664736F6C6343000511003200000000000000000000 "
		},
		"gasEstimates": {
			"creation": {
				"codeDepositCost": "51000",
				"executionCost": "85309",
				"totalCost": "136309"
			},
			"external": {
				"poros(uint256)": "5311"
			},
			"internal": {
				"_fight(uint256,struct baseRule.Poro memory)": "infinite",
				"_triggerCoolCountDown(uint256)": "infinite"
			}
		},
		"methodIdentifiers": {
			"poros(uint256)": "af3f11d7"
		}
	},
	"abi": [
		{
			"constant": true,
			"inputs": [
				{
					"internalType": "uint256",
					"name": "",
					"type": "uint256"
				}
			],
			"name": "poros",
			"outputs": [
				{
					"internalType": "uint256",
					"name": "level",
					"type": "uint256"
				},
				{
					"internalType": "uint256",
					"name": "damage",
					"type": "uint256"
				},
				{
					"internalType": "uint256",
					"name": "HP",
					"type": "uint256"
				},
				{
					"internalType": "uint256",
					"name": "defence",
					"type": "uint256"
				},
				{
					"internalType": "uint256",
					"name": "coolcountdown",
					"type": "uint256"
				}
			],
			"payable": false,
			"stateMutability": "view",
			"type": "function"
		}
	]
}